:020000041000EA
:1000000000B5324B212058609868022188439860DF
:10001000D860186158612E4B002199600221596106
:100020000121F02299502B49196001219960352056
:1000300000F044F80222904214D00621196600F024
:1000400034F8196E01211966002018661A6600F04E
:100050002CF8196E196E196E052000F02FF8012189
:100060000842F9D1002199601B49196000215960AB
:100070001A491B48016001219960EB211966A021F2
:10008000196600F012F800219960164914480160C1
:100090000121996001BC002800D000471248134993
:1000A000086003C880F30888084703B5996A0420EC
:1000B0000142FBD001200142F8D103BD02B5186610
:1000C0001866FFF7F2FF186E186E02BD00000240BE
:1000D000000000180000070000035F00212200005C
:1000E000F4000018222000A00001001008ED00E03C
:1000F00000000000000000000000000074B24E7A12
:1001000000200420F7010010C3010010C5010010F9
:10011000C1010010C1010010C1010010C101001097
:10012000C1010010C1010010C1010010C701001081
:10013000C1010010C1010010C9010010CB01001065
:10014000CD010010CD010010CD010010CD01001037
:10015000CD010010CD010010CD010010CD01001027
:10016000CD010010CD010010CD010010CD01001017
:10017000CD010010CD010010CD010010CD01001007
:10018000CD010010CD010010CD010010CD010010F7
:10019000CD010010CD010010CD010010CD010010E7
:1001A000CD010010CD010010CD010010CD010010D7
:1001B000CD010010CD010010CD010010CD010010C7
:1001C00000BE00BE00BE00BE00BE00BEEFF3058054
:1001D000103800BEF2EB88716C1700108817001001
:1001E0003802001090A31AE71E481F49086006C88D
:1001F00081F3088810471D480068002801D019487D
:10020000F3E70DA40ECC002902D000F012F8F9E7B4
:100210001749184A002000E001C19142FCD116495B
:100220008847164988471649884700BEFDE701C937
:1002300001C29A42FBD3704788170010C00000200B
:10024000EC010020B418001000000420000004207D
:10025000B41800100010042000100420000000005A
:10026000704700000000000008ED00E0000000D032
:10027000EC0100207007002009120010A9020010F4
:1002800001120010F8B5C046044B10B5002B03D086
:100290000349044800E000BF10BDC0460000000054
:1002A0004007002094160010192010B500F014F833
:1002B0000F2000F011F8D023802080211B0680043D
:1002C0000902586299625A680A4203D158615A6811
:1002D0000A42FBD09861F6E70123D0228340120640
:1002E00093629361094A83009A1811684022514031
:1002F00080320A400649C0008C4663441A60054BB0
:100300009C460523604443607047C04604C00140DA
:1003100004D00140004001400FB400B5084883B04C
:1003200001F0B0F8049B002B07D005A9180001913B
:1003300000F04CFF034801F0A5F8012000F05EFF3B
:1003400094160010A416001070B5EFF3108C72B65E
:100350000D4D2B68002BFCD0BFF35F8F0724CB081B
:10036000C618C05C01230C40A3401C00044003429B
:1003700007D118433070BFF35F8F2C608CF3108867
:1003800070BD1000FFF7C8FF2C0100D0044A1078A0
:10039000431CDBB2172B00D9102313707047C046E3
:1003A000980100200021044B044ABFF35F8F02C371
:1003B0009342FAD17047C046000100D0800100D0BE
:1003C000054B064A1360064A136053609360D3607E
:1003D00013615361936170478080808000E400E086
:1003E00004E400E01F2318401E3B8340002905D091
:1003F000C021044A490053501360704780220149CC
:100400008B50FAE700E100E070B50D00EFF31086C5
:1004100072B60F4A1368002BFCD0BFF35F8F0D4BF1
:1004200010309B6884001B590B4A934203D09D42B5
:1004300001D000F001FD074B9B681D51BFF35F8F9A
:10044000BFF35F8F0022024B1A6086F3108870BDE5
:10045000240100D000ED00E0CD010010024B9C46CD
:1004600061448900016070474000003470B5114C50
:10047000114DAC420FD2FF262368002B0CD0FFF7A2
:1004800085FF01002000FFF7E9FFA680BFF35F8F23
:100490000834AC42F0D370BDFFF778FF01002000B4
:1004A000FFF7DCFF2671BFF35F8F0834AC42E3D364
:1004B000F1E7C046E4010020EC0100200A4B196876
:1004C000EFF3108072B60A68002AFCD0BFF35F8F8A
:1004D0001B68BFF35F8F00221A6080F3108840BF53
:1004E000002000217047C0466C070020F0B5DE46B2
:1004F00057464E464546E0B587B0EFF305820323E5
:10050000012513409D409900B34AB44B54581D60D7
:10051000B34B8846A946049329E0A3881BB2002B5D
:1005200000DBA5E0A379002B00D0E6E00823E05E25
:10053000002800DA0FE1430062691B18DB00D318C2
:100540009E68DD68731C00D111E1A64B190041447F
:100550009A6A0B69B01A9B1A984200D20E61A148A0
:1005600000F0C2FA8D4200DDF5E000D12BE14B46F0
:100570009C4843630823E55E002DCEDB62696B0077
:1005800092465B19DB009A4453469E68DF6800F090
:10059000ABFA8F42C1DC00D10BE1002F00DAF0E0B2
:1005A0005246534652691B699346049A934200D1BE
:1005B000E1E052460821605E52880004594610432B
:1005C0009847029003910299039A0B00100013437D
:1005D00000D1D6E013000A00B61A9F41002806DBBE
:1005E000804800F081FA029E039F36184F4153461F
:1005F0009E60DF6000229A5E002A8EDB530099180D
:100600006069C900411801938B68C9689B46B9426B
:1006100000DD82E702D1B34200D97EE708239C4681
:10062000A444059565462281A446019B2C0006E062
:1006300053009918C90041188D68C968AB469B18CA
:10064000DB00C318B94206DC00D1C0E01C00002367
:10065000E25E002AECDA230064469C4653461A8088
:100660006346059D1D80A3881BB2002B00DA59E765
:100670002269EFF3108172B61368002BFCD0BFF330
:100680005F8F0123A7885B42A3803FB22369BFF33A
:100690005F8F00221A6081F31088002F00DA41E793
:1006A0002300083322009A4666697B00DB19DB00D1
:1006B000F318996850468C460824115FDD680029BC
:1006C00010DB019306E0AB424DD00023E15E200039
:1006D000002906DB4C006418E4003419E368AB42DF
:1006E000F1DD019B078000201F5E1980002FDCDAFE
:1006F0001400A379002B00D118E70023A371260072
:100700000823E15E08364B1C25D00800A246656927
:1007100002E03E004B1C1AD04B005B18DB00EF18C8
:100720000A008C46E95E7B881BB2002BF1DA0123BC
:100730005B42DC17BB60FC60824205D053463180CF
:100740001B893B8053461A8160464B1CE4D15446BA
:10075000002800DBEFE640BF07B0F0BCBB46B24666
:10076000A946A046F0BDA3686345AED9B9E76B1CA6
:1007700000D0EAE6F3E65B4658461B699847002836
:100780001BD153461B8822692381EFF3108372B675
:1007900011680029FCD0BFF35F8F514662880A8040
:1007A00022696580BFF35F8F0021116083F3108899
:1007B000B3E6864200D8F0E6AFE65B461A685B68AF
:1007C00002920393FFE6864200D8D0E6C3E7B34522
:1007D00000D83BE73FE7C046580700203C70054083
:1007E000ED0400100040054070B52E4C2569002D29
:1007F00004D00A212C48FFF731FE70BD2B4E032197
:10080000300000F067F9E660FFF7C0FD284B0322D7
:100810009C46D02322701B061B6801216370254B68
:100820006044A3600F23800020610220638063691D
:100830004942A18019800231198647311D835852DF
:1008400018315A5275325C39995218320131995225
:100850001832013199521832013199520835183243
:100860009D52023118329952183201319952183280
:10087000013199521832013199521832013199528D
:100880001832013199520C4B0C49DC600130356251
:10089000FFF7BAFD01210320FFF7A4FD084B1D60FF
:1008A000A7E7C0469C0100206C07002000400540DF
:1008B00040000034FFFF100058070020ED04001036
:1008C0003860054070B501000469EFF3108C72B612
:1008D00020680028FCD0BFF35F8F02200D5E4C69BA
:1008E00068004019C00024180869002D36DB2688EE
:1008F0004E80BFF35F8F002606608CF31088E360A4
:1009000063880498013320615B0405985B0CA26046
:1009100060611A1C002B1FD093B228046280184318
:100920000A69EFF3108C72B61368002BFCD0BFF38A
:100930005F8F8B8823808D800B69BFF35F8F0022D0
:100940001A608CF310880B7801329A40CB68084902
:100950008C4663441A6070BD0122DDE7BFF35F8FF0
:10096000002303608CF3108801204042F3E7C04667
:100970003C20000010B543890A1493421ADD53004D
:100980009B184269DB00D3180469EFF3108C72B630
:100990002268002AFCD0BFF35F8F5A88090494B202
:1009A000090C8A4208D00369BFF35F8F00221A60E6
:1009B0008CF31088002010BD8022120214435C804A
:1009C000012302698371BFF35F8F002111608CF3F3
:1009D0001088044902788C469340C2680120624422
:1009E0001360E8E73C200000F0B5CE46474680B5EE
:1009F00004000D0083B0EFF3058399460F00002B30
:100A000042D1314EA0463378F06804339B00816AAE
:100A10001B58601A5B1A984212D320BF2B49002042
:100A20004B6AAB4207D38A6A5B1B591E8B41414616
:100A30008A424041184303B0C0BCB946B046F0BD3D
:100A400000F05AF822002B00121A8B41002B28DBF1
:100A50004B4601931E4B2200009330002B00FFF702
:100A600031FF011E1DDD194B5A6AAA422AD39B6A27
:100A70009C4225D83000FFF77DFF144A0020536ABE
:100A8000BB42D8D3926ACFE7104900204B6AAB42F1
:100A9000D1D38A6A5B1B591E8B41A2424041184345
:100AA000C9E70A4A0020536ABB42C4D3002041462A
:100AB000926A5B1B8A4240415A1E93411843BAE72F
:100AC000AA42D7D120BFD5E79C01002000400540B5
:100AD000BD04001010B5024A0248FFF735FC10BDF6
:100AE000A8160010080700200300416A0A00986A4F
:100AF000596A8A42FAD17047034B596A0A00986AC8
:100B0000596A9142FAD1704700400540F8B5DE4677
:100B10004E4657464546E0B58B4605000A991800F3
:100B2000160000F067FA0A9B6C001F02324B641932
:100B30009C46A4006444636881469F4200D9676074
:100B40002B1FDBB29846012B30D9C02380229B019A
:100B5000E31812011A60294BAD0059599A46002931
:100B60001BD17301E026226853401E408023424679
:100B70005B01E3181E60012A30D9802380229B018B
:100B8000E31812011A6053464A4667605A51F0BC96
:100B9000BB46B246A946A046F8BD586900F02AFAFD
:100BA000013043001B18033BFDD2DAE75B46012B03
:100BB000CBD1C02303229B01E3181A60023AA36839
:100BC0001A42FCD07301E0262268AD0053401E405B
:100BD00080230A4A5B019246E3181E605A46216848
:100BE000514003220A401A6001225B469A40A368E2
:100BF0001A42FCD0C1E7C046008000400C0700202C
:100C0000F0B546464F46D646C0B51F00344B4400AB
:100C10009C462418A4006444636888461600FF2B91
:100C200002D880235B006360031FDBB29A46012B6E
:100C300030D9C02380229B01E31812011A60294B8E
:100C400085005959994600291BD17301E026226875
:100C500053401E40802352465B01E3181E60012A68
:100C600030D9802380229B01E31812011A6080236F
:100C70005B0063604B465F51E0BCBA46B146A84694
:100C8000F0BD586900F0B6F9013043001B18033B72
:100C9000FDD2DAE74346012BCBD1C02303229B01CF
:100CA000E3181A60023AA3681A42FCD07301E026E6
:100CB0002268850053401E4080230A4A5B0191460A
:100CC000E3181E6042462168514003220A401A6020
:100CD000012342469340A2681342FCD0C1E7C046BC
:100CE000008000400C070020014B8000C058704776
:100CF0000C070020F8B5040021481E0017000D0065
:100D000000F078F90100380000F074F9069B360411
:100D10001B031E432368002B20DB1A4B1A49E318E0
:100D20005A1E93418022920194465B421B0B174A44
:100D30001B0363441360164A13601F000A6897433D
:100D4000FBD1144B2560E2182123A06013602368B7
:100D5000002BFCDA0823E6601360F8BD3F2322680D
:100D60001340AB42D9D1A3681B051B0D8342D4D1DC
:100D7000EE22E368D2021340B342CED1EDE7C04683
:100D8000001BB7000040FDBF08C0004000E000406D
:100D900000F00040043000008023024A9B000B4317
:100DA000D362704700800540002310B50100988A87
:100DB0001B8B984710BDC046162310B5010018883C
:100DC00002331B88984710BDF8B54746CE4680B51C
:100DD0000F1E18D014239946043304000025012661
:100DE00098464B461888434621681B88984701C49B
:100DF000431E984101350640AF42F2D13000C0BCDD
:100E0000B946B046F8BD0126F8E7C046AA23064A0F
:100E10001B0113602F230549D360054B19605368EC
:100E2000002BFCDA7047C0460040024000B0FA00D8
:100E3000006002407047C04610B50148FFF76CFAE9
:100E4000CC16001070B5074D074EB54209D20024EC
:100E5000013E761BB60808CD984723000134B34203
:100E6000F9D170BD501600108C160010054B064AC3
:100E700006491A60064A074B1A6010000B6898432F
:100E8000FBD1704700E00040BFCDFBFE08C0004032
:100E9000FE7F3C0000F00040044BDB6C002B03D1D4
:100EA0008022034BD2021A607047C04600001150E6
:100EB0004C201150044A054B1A60054A1368DB01A7
:100EC0008033FBD17047C046FFFFFF0100F00040B8
:100ED00008C000404022034B9A675A671A67DA66D7
:100EE0007047C04600F0014010B5FFF75BFA10BD37
:100EF00070B5044D044CA968C022200000F058F9D8
:100F0000AC6070BD00ED00E000000020002310B5D3
:100F1000294C82B0A367FFF779FF0122274B1A60A3
:100F2000636C012BFCD10322254B1A60224A936B80
:100F3000012BFCD1013300930121224A22480433C2
:100F4000FFF7D8FE052301210093204A2048FFF730
:100F5000D1FE0022022104201E4BFFF751FE002289
:100F6000012105201C4BFFF74BFE0022002107202A
:100F70001A4BFFF745FE002200210820174BFFF710
:100F80003FFE8023DB000093002200210920134B49
:100F9000FFF7BCFD0022104B00210620FFF730FEBA
:100FA0000420FFF7A1FE0E4900F024F80100002004
:100FB000FFF7F2FE02B010BD008000403CB00040E0
:100FC00030B00040002F685900800240008C8647F6
:100FD00000C00240001BB70040597307006CDC02E0
:100FE00040420F0001480421014B1847C001002076
:100FF000C90D0010114A936F9B0813D210665166F9
:10100000002905D0FFE7FFE7FFE7516F106F70473A
:1010100004B5002801D00020C04300F009FB0021E6
:1010200004BDC046F0B5146E556E576F166FFFF7CE
:10103000E5FF1466556657671667F0BD000000D0DF
:10104000132370B51D78012D19D014DD1F48FFF74B
:10105000B3FE06001E48FFF7AFFE1E4C8022310093
:10106000200000F0A5F8022D2DD01B48FFF79CFEB4
:101070001A4B186070BD1A4B164CA364F5E7184B59
:10108000144C23606360A360E36023616361A36128
:10109000E36123626362A362E36223636363A36326
:1010A000E36323646364A364E36423656365A36506
:1010B000E36523666366A366E36623676367A367E6
:1010C000E367A364D1E7064BA364CEE75344000073
:1010D00053460000700300204C33000068070020D6
:1010E000E510001007B5604601880A0A0230DF2AC1
:1010F000FAD1C9B2820804D30288408800041043A0
:1011000000E00068014A5050039007BD70030020C2
:10111000132310B512481C78FFF74EFE0100012C76
:101120000AD003DD80220F4800F042F80E48FFF796
:101130003BFE0E4B186010BD0A4C5422200000F0FC
:1011400037F80B4B6365A365E36523666366A366A7
:10115000E36623676367A367E3672362E361E5E709
:1011600053460000700400204C3300006807002044
:101170007511001007B5604601880A0A0230DF2A9F
:10118000FAD1C9B2820804D302884088000410430F
:1011900000E00068014A5050039007BD7004002031
:1011A00001480421014B1847D0010020C90D00104F
:1011B000014B5B6818470000D001002010B50028E3
:1011C00000D110BD00F014F9FBE7C04610B5094A84
:1011D0000300146884B0002C08D001220091064856
:1011E000524203A9A047012004B010BD00F04AF903
:1011F0000020F9E73C070020BD11001000BEFDE70C
:1012000010B5FFF7FBFFC04670B5FFF71BFE074D9B
:10121000074EB54209D20024013E761BB60808CD20
:10122000984723000134B342F9D170BD8C160010E9
:1012300094160010030010B5080011001B689847B1
:1012400010BDC046F0B5C64600B5437D07000C0092
:101250001600002B46D0002A17DD0B780A2B24D06D
:1012600000239846012E13D001252900635C013527
:101270000A2B26D0B542F8D1464509DCA419013C19
:1012800023780D3B5A4253413B7580BCB846F0BDB4
:101290004346E018A419F11A013C3B6898472378AB
:1012A0000D3B5A4253413B75EFE7037D002BD7D1ED
:1012B00002210F483B689847012EDFD00123984652
:1012C000D2E7631E5B5C0D2BD4D0884504DA43461D
:1012D000C91AE0183B689847022105483B68A846B0
:1012E0009847C7E70368110020009847CDE7C0463C
:1012F00068170010F0B54546DE464E465746E0B545
:1013000083B091461C0080460D00FFF7F5FB0023DB
:10131000304A12184B41002B02DA01222E4B524266
:101320002E4908008A4600F08BF907006B1C03D198
:10133000404600F0E5F80500002C27D0284E294B48
:101340001C68002C18D04B46002B21D1264B994607
:1013500002E02469002C0FD02368002BF9D04B4603
:101360001B68002B01D09C42F3D120002A0041468B
:10137000B0472469002CEFD1002F26D1280003B0FC
:10138000F0BCBB46B246A946A046F0BD174ED6E714
:10139000154B99460A239B4602E02469002CEBD0AA
:1013A0002368002BF9D04B461B68002B01D0A342C9
:1013B000F3D12A0041462000B0476B465A46200030
:1013C000DA71D91D0122B047E7E7504600F028F94D
:1013D000D4E7C04640420F00FFFFFF7FE40100203A
:1013E0004512001034070020380700203512001085
:1013F000F0B5CE46474680B583B06B460600DD1D8E
:101400002870FFF779FB0023194A12184B41002B73
:1014100002DA0122174B524217490800884600F0B1
:101420000FF9164B81461C68002C14D0144F02E0B3
:101430002469002C0FD02368002BF9D03B68002BC7
:1014400001D09C42F4D1200001222900FFF7FAFECE
:101450002469002CEFD14B46002B05D1300003B09E
:10146000C0BCB946B046F0BD404600F0D9F8F5E73B
:1014700040420F00FFFFFF7FE401002034070020FF
:101480003807002070B5040000F03AF8012301008D
:10149000050001222000FFF72DFF084B1C68002CDF
:1014A00006D06368002B05D098472469002CF8D13A
:1014B000280070BD2469002CF3D1F9E7340700201F
:1014C00010B5010000230022002000F047F810BDF5
:1014D00070B5074C074D641BA41005D0013CA30058
:1014E000EB589847002CF9D100F098F870BDC04631
:1014F00094160010941600107047C0467047C046FE
:1015000010B583070AD00300032102E001330B4228
:1015100005D01A78002AF9D1181A10BD03001968ED
:101520000C4A0D4C8A188A4322420FD15968094A45
:1015300004338A188A43224208D15968054A043381
:101540008A188A432242F1D000E001331A78002A37
:10155000FBD1E1E7FFFEFEFE80808080F0B5D6463D
:101560004F4646469846244BC0B5060018689A4632
:101570000F009146FFF7C0FF204B1D68002D32D0B1
:1015800053466C6818681F2C30DC002E0CD1631C8D
:101590000234A4006B606751FFF7B0FF0020E0BC8D
:1015A000BA46B146A846F0BD49468822A300EB18CA
:1015B0009950C42149008C46AC446146873AA24008
:1015C00009689146114362461160842142464900F0
:1015D0005A50022EDBD129004A468D31FF310B686B
:1015E00013430B60D3E7064D1D60C9E7FFF786FF85
:1015F00001204042D3E7C046E001002070050020F2
:1016000074050020034B10B5002B02D00248FFF7F1
:1016100057FF10BD00000000D1140010F8B5C046FF
:1016200001B40248844601BC604700BF5901002054
:1016300001B40248844601BC604700BF810100201C
:1016400001B40248844601BC604700BFC1000020CD
:101650006D0E0010990E0010E50F0010A111001082
:1016600041100010111100100D0F0010B50E0010E8
:10167000D50E0010E90E00106D040010F10E0010E0
:10168000E9070010350E0010C10300100516001008
:0416900089020010BB
:101694000A2A2A2A2050414E4943202A2A2A0A008B
:1016A4000A000000486172647761726520616C61B0
:1016B400726D20256420616C726561647920636CAD
:1016C40061696D6564000000486172642061737330
:1016D4006572740052656C6561736500626F6F7446
:1016E400325F77323571303830000000322E312EBF
:1016F400300000007069636F00000000626C696E66
:101704006B0000004A616E203131203230323500E6
:1017140006005250D3F07542D816001006005250FD
:10172400E182887FE016001006005250ABB360538C
:10173400F016001006005250BBFF3CB6F81600101D
:1017440006005250861C0302001700100600525077
:101754005422A29D0817001005005250DE65F4685B
:08176400B41800100D0A00008A
:10176C0014170010201700102C1700103817001039
:0C177C0044170010501700105C170010FC
:10178800F0B5C646150000B504001E000268EFF368
:10179800108172B61368002BFCD0BFF35F8F04234F
:1017A800E3562268002B2BDBBFF35F8F002010600D
:1017B80081F31088D02212061278002752B2904680
:1017C8009A420ED1002080BCB846F0BDBFF35F8FAF
:1017D800176081F310882800310000F035F80028E0
:1017E800F0D12268EFF3108172B61368002BFCD099
:1017F800BFF35F8F237922687F2BE7D9434602E046
:10180800D0231B061B682371BFF35F8F002313606F
:1018180081F310880120D6E70268EFF3108172B6D1
:101828001368002BFCD0BFF35F8FFF23037103689D
:10183800BFF35F8F00221A6081F3108840BF7047A2
:101848007047C0460000000001B40248844601BC4D
:10185800604700BFE9090010100000000000000008
:101868000000000000000000000000000000000070
:10187800F00100200000000000000000000000004F
:10188800503300004C330000543300005233000042
:101898004D5300004D430000533400004334000012
:0C18A80004070020000000000000000009
:04000005100001E9FD
:00000001FF
